:020000040800F2
:10000000002000200D4300089D1100089F110008EA
:1000100000000000000000000000000000000000E0
:10002000000000000000000000000000A111000816
:100030000000000000000000A3110008A511000846
:100040005D430008000000005D4300085D430008B8
:100050005D4300085D4300085D4300085D43000800
:10006000000000005D4300085D4300085D43000898
:10007000AD110008BD110008CD11000800000000FE
:100080005D43000800000000000000005D43000820
:10009000000000005D4300085D4300085D43000868
:1000A0005D430008DD110008ED1100085D43000804
:0800B0005D43000800000000A0
:1000B80010B5064C2378002B07D1054B002B02D036
:1000C800044800E000BF0123237010BD7000002029
:1000D8000000000018550008044B10B5002B03D091
:1000E8000349044800E000BF10BDC04600000000FE
:1000F800740000201855000803B4714649084000F0
:100108004900095E49008E4403BC70470022430839
:100118008B4274D303098B425FD3030A8B4244D3C7
:10012800030B8B4228D3030C8B420DD3FF22090209
:1001380012BA030C8B4202D31212090265D0030BC8
:100148008B4219D300E0090AC30B8B4201D3CB03BE
:10015800C01A5241830B8B4201D38B03C01A524100
:10016800430B8B4201D34B03C01A5241030B8B4202
:1001780001D30B03C01A5241C30A8B4201D3CB02ED
:10018800C01A5241830A8B4201D38B02C01A5241D2
:10019800430A8B4201D34B02C01A5241030A8B42D5
:1001A80001D30B02C01A5241CDD2C3098B4201D3ED
:1001B800CB01C01A524183098B4201D38B01C01A6B
:1001C800524143098B4201D34B01C01A52410309E2
:1001D8008B4201D30B01C01A5241C3088B4201D391
:1001E800CB00C01A524183088B4201D38B00C01A3E
:1001F800524143088B4201D34B00C01A5241411A65
:1002080000D20146524110467047FFE701B5002071
:1002180000F006F802BDC0460029F7D076E770471F
:100228007047C046F0B5C64643025B0A4E02450019
:100238004F00DA00C40F9C46700A904600B52D0E98
:100248003F0EC90FB6098C424BD0EA1B002A36DD97
:10025800002F61D0FF2D00D1ADE08023DB041E43C9
:100268001B2A00DCD3E001204346181A430100D4BE
:100278008CE080018709380000F0B4FC053887401D
:10028800854200DCB6E02D1AB3483840430704D055
:100298000F230340042B00D00430430100D478E03E
:1002A8006A1CFE2D65D08001430A9C46D2B2634683
:1002B800D0051843E407204380BCB846F0BD002AA7
:1002C80035D07A1B002D00D0AFE04346002B00D17B
:1002D800A7E0531E012A00D12FE1FF2A69D01A0096
:1002E800AAE0E91B002970DD002F37D0FF2D62D06E
:1002F8008023DB041E431B2900DCB0E001204044BE
:10030800430143D50135FF2D33D00123934A0340E0
:10031800400810401843B9E7002E00D183E0511E71
:10032800012A00D1D8E0FF2A45D00A0098E7FE2725
:100338006A1C174200D086E0002D00D0B7E0434683
:10034800002B00D1F3E00022002EB0D0981B43010F
:1003580000D4FAE043460C00F01A97E7002E00D1CB
:10036800C8E04A1E012900D1AEE0FF2923D01100C0
:10037800C1E70023FF229C4699E7FE216A1C11422F
:1003880077D0FF2AF5D0150046447008430700D0FF
:100398007EE7C308FF2D0ED05B025B0A9C46EAB2DB
:1003A80085E7002E07D08022D203134203D01042E3
:1003B80001D10C000300002BDBD08020C0031843C0
:1003C8004002430A9C46FF2271E70029D5D07A1BD8
:1003D800002D60D14346002B24D0531E012A73D030
:1003E800FF2AE7D01A001B2A00DC85E001203D0027
:1003F800801985E720233A00451B38000135EA407B
:100408005D1BA840431E9841002510433EE720236A
:1004180030009B1A31009840D140431E9841084350
:1004280022E70C0003001500B4E7FF2FC1D080239A
:100438004046DB04184380461B2A51DD01200C008E
:100448003D00301A12E743469F1B7B012BD4002F37
:1004580000D010E70023002400229C4627E7202331
:1004680032003000CA40591A8840431E9841104350
:1004780045E7002D4AD14346002B63D00022002EC9
:1004880000D114E730004044430100D47EE7324BEA
:10049800013518407AE7FF2F8CD080234146DB04D2
:1004A800194388469FE743460C00F71AE3E642469D
:1004B800002A00D075E7002E00D07AE78023DB03FE
:1004C80000249C46FF22F2E6300040440125430107
:1004D80000D45BE7022518E743460125981BC5E6CB
:1004E800202344464046D4409A1A9040431E9841DF
:1004F8002043A4E70D004DE7202341464046D14064
:100508009A1A9040431E9841084370E74246002AD1
:1005180000D14FE7002E00D14DE78022D2031342CD
:1005280000D148E7104200D045E7030043E7002E1A
:1005380090D00C0084460022B9E643460C00F01A1D
:10054800013593E684460022B1E6002800D01DE775
:10055800002300249C46AAE6FFFFFFFBFFFFFF7D68
:10056800F0B54F464646D64644024500C0B5640A33
:100578000F1C2D0EC60F002D00D18DE0FF2D00D1D0
:1005880092E00023802099469A46E400C004044380
:100598007F3D7802430A98467B001B0EFF0F002B15
:1005A80000D170E0FF2B00D186E04246D0008022C7
:1005B8007F3BED180023D204024390469C4631004D
:1005C8004B467940681C0F2B1CD8764A9B00D358A1
:1005D8009F4639004446E2465346022B0FD0032B70
:1005E80000D1D7E0012B37D100200024C0052043DB
:1005F800C9070843E0BCBA46B146A846F0BDFF208B
:100608000024F3E7260C2404220C44462404240C7A
:10061800434627001B0C574374435A435E43121941
:100628003B0C9B189C4203D9802252029446664494
:100638003F041A043F0CD2199401671EBC411B0CDD
:10064800920E9B1914439B011C431B0100D49BE091
:10065800012362081C40144302007F32002A64DD33
:10066800630704D00F232340042B00D00434230154
:1006780003D502004C4B80321C40FE2ABFDCA4018B
:10068800640AD0B2B2E74346002B3DD14A46013353
:100698001A4391469C4692E7002C29D10423994697
:1006A800033B00259A4674E7002C1BD10823994682
:1006B800063BFF259A466CE74346FF35002B0BD1D6
:1006C80002234A461A4391469C4678E7534631002E
:1006D800022B00D083E792E703234A461A43914648
:1006E8009C466CE70C239946093BFF259A4650E740
:1006F800200000F077FA7625431F9C4000236D42C6
:1007080099469A462D1A44E7404600F06BFA42464D
:10071800431F9A4000232D1A90469C46763D4EE78B
:1007280080240021FF20E40360E701239B1A1B2B90
:1007380000DD59E722009E30DA4084401300621E33
:1007480094411C43630704D00F232340042B00D09B
:10075800043463011AD50120002447E78020C00330
:10076800044209D04346034206D144460443640286
:100778003900FF20640A39E78020C003044364027B
:100788003100FF20640A31E7280065E7A401002052
:10079800640A2BE78020C00304436402FF20640A34
:1007A80024E7C04630550008FFFFFFF7F8B5CE46EE
:1007B800474643025B0A4E02DA009446720A9146A3
:1007C80045004A0080B52D0E1F00C40F120EC90F38
:1007D800B609FF2A5BD0012041408C4239D0A81AC3
:1007E80000285ADD002A6AD0FF2D00D1D9E08022E6
:1007F800D20416431B2800DCE9E001206346181ADE
:10080800430100D4B4E080018709380000F0EAF918
:1008180005388740854200DCCCE02D1AB5483840C1
:10082800430704D00F230340042B00D004304301B6
:1008380000D4A0E06A1CFE2D00D18DE08001470A9B
:10084800D2B2D0053843E4072043C0BCB946B0460D
:10085800F8BDA81A8046002845DD002A70D0FF2D73
:1008680000D19EE08023DB041E4343461B2B00DCA3
:10087800D2E00120604443017AD50135FF2D6BD0C9
:1008880001239D4A0340400810401843C8E7002E42
:1008980020D08C4223D02800FF38002839D0571B9D
:1008A800002D00D09DE06346002B00D1DBE07B1ECD
:1008B800012F00D10DE1FF2F71D01F0098E0002E0D
:1008C80000D1A7E0421E012800D1E6E0FF2868D049
:1008D80010008FE701204140A14200D07FE7FF20B0
:1008E80040428046A8444046002838D0511B002D7D
:1008F80000D1AEE0FF2A00D1DFE080236046DB04B0
:10090800184384461B2900DCD9E001201500801912
:10091800B1E7FE206A1C104271D1002D00D0A6E07C
:100928006346002B00D1D9E00022002E00D188E7D1
:10093800981B430100D4E1E063460C00F01A6FE70E
:10094800002E00D1B7E00200013A012800D19CE056
:10095800FF2826D0904688E7FF22002771E7FE206F
:100968006A1C104264D0FF2AF6D01500664470084D
:10097800430700D056E7C308FF2D12D05B025F0A79
:10098800EAB25EE76246002A00D196E0002E08D05F
:100998008022D203134204D04846104201D10C00F1
:1009A8004B46002BD8D08027FF031F437F02FF222E
:1009B8007F0A46E720233A00451B38000135EA4004
:1009C8005D1BA840431E98410025104328E72023BB
:1009D8001B1A32009E40C2403000431E984110430B
:1009E8000CE7FF2ADBD080236046DB0418438446EB
:1009F8001B2F56DD01200C001500301A00E7634656
:100A08009F1B7B013DD4002F00D0FEE6002400226E
:100A1800002716E70500AFE7320043464146DA40B3
:100A280020235B1A9E403000431E9841104321E763
:100A3800002DA7D16346002B59D00022002E00D1EB
:100A4800FFE630006044430192D52A4B0135184037
:100A58008EE76346002B47D04B1E012915D0FF298E
:100A68002BD019004EE70C004B463D0084E7624648
:100A7800002A8BD1002E92D180270024FF22FF0369
:100A8800DFE663460C00F71ABFE630006044012534
:100A9800430100D46CE70225F2E663460125981B62
:100AA800AEE6202364466046FC40DF1BB840431E88
:100AB800984120439FE705005EE74B4671E72023F6
:100AC80065466046CD40591A8840431E98412843E0
:100AD8001CE763460C000125F01A91E6002E95D01C
:100AE8000C004F460022ACE64B460D0044E74F464B
:100AF8000022A6E6FFFFFFFBFFFFFF7D002800D0D6
:100B080036E7002400279CE641024200C30F490A49
:100B18000020120E7E2A03DD9D2A02DD094A98185C
:100B28007047802000040143952A07DC9620821A2A
:100B3800D1404842002BF3D10800F1E7963A9140A2
:100B4800F7E7C046FFFFFF7FF8B5002813D0C317AB
:100B5800C6185E40C40F300000F044F89E2305001C
:100B68001B1A962B0FDC082801DD083DAE407602E3
:100B7800760AD8B202E0002400200026C0053043DF
:100B8800E4072043F8BD992B0CDD05223100121A29
:100B9800D1400A00010030001B318840411E8841C5
:100BA80002431600052D12DC31000D4F3940720743
:100BB80009D00F203040042805D004314A0102D55D
:100BC8009F2339405B1B89014E0AD8B2D6E76A1FBA
:100BD80096403100024F39407207F4D0E9E7C04629
:100BE800FFFFFFFB1C2101231B04984201D3000CCB
:100BF80010391B0A984201D3000A08391B09984288
:100C080001D30009043902A2105C40187047C0469D
:100C180004030202010101010000000000000000BD
:100C2800F0B5C64600B588B01422002103A803F029
:100C3800BDFB204B596B022211435963596B0A4083
:100C48000092009A596B042211435963596B0A4068
:100C58000192019A5A6B01252A435A635B6B2B4018
:100C68000293029B80242402134B98460122210000
:100C7800180001F01BFD88273F01A026F605012278
:100C88003900300001F012FD039404950024059406
:100C9800069403A9404601F04DFC0397049505947A
:100CA800069403A9300001F045FC08B080BCB846A2
:100CB800F0BDC046001002400008005072B6FEE7C2
:100CC80000B585B00C22002101A803F06FFB19487C
:100CD800194B03608023DB05436000238360C360F6
:100CE80003610422426103764376033A8276C26145
:100CF8001F328354436283620C3283540363436319
:100D0800836310328354C36400F07EFC00280CD146
:100D18000123019300230293039301A9054800F0DE
:100D280065FE002803D105B000BDFFF7C7FFFFF738
:100D3800C5FFC0468C0000200024014010B51248B1
:100D4800124B036082235B0043608023DB008360D7
:100D5800F0231B01C36000230361436180229200DA
:100D68008261E93AFF3AC261036243628362113ADF
:100D7800C26203630833436301F048FF002800D1CF
:100D880010BDFFF79BFFC046F00000200030014077
:100D980010B50D480D4B0360002343608360F022BB
:100DA8001201C2600361436183610362436283622B
:100DB8000722C2620363436301F028FF002800D1C1
:100DC80010BDFFF77BFFC0465401002000380040EB
:100DD80000B5A1B0102200211CA803F0E7FA1422E4
:100DE800002117A803F0E2FA0C22002114A803F04E
:100DF800DDFA1C2200210DA803F0D8FA34220021C4
:100E0800684603F0D3FA3C483C4B03600023436038
:100E180083603B4AC260036143618033836102F0AF
:100E28006BFC002857D180235B011C931CA9324816
:100E380002F06EFD002850D12F4802F08DFC0028EA
:100E48004DD108212C4802F0B7FC002849D10623CF
:100E580017936A331893002319931A931B9317A9AE
:100E6800254802F013FE00283DD100231493159362
:100E7800169314A9204802F037FE002835D1002324
:100E88000D930E930F9310931193129313930022C3
:100E98000DA9194802F000FD002828D1002300936D
:100EA800019302930393049380229201059206937F
:100EB800079308938022920409920A930B930C9348
:100EC80069460D4802F048FE002812D10A4800F091
:100ED800ADFA21B000BDFFF7F1FEFFF7EFFEFFF717
:100EE800EDFEFFF7EBFEFFF7E9FEFFF7E7FEFFF782
:100EF800E5FEFFF7E3FEC046B8010020002C0140E4
:100F0800FFFF000010B50C480C4B0360E1235B02A7
:100F1800436000238360C36003610C2242618361E4
:100F2800C36103624362836203F0B2F9002800D10F
:100F380010BDFFF7C3FEC046040200200044004075
:100F480000B599B0342200210BA803F02FFA102223
:100F5800002107A803F02AFA1822002101A803F0AB
:100F680025FA8020800001F0EFFB02230B93FE336B
:100F78000E9300230F934022109212930BA800F0B7
:100F880089FE002817D107230793002308930993A4
:100F98000A93002107A801F02FF900280DD180231A
:100FA800DB0101930023059301A801F005FA00284D
:100FB80005D119B000BDFFF781FEFFF77FFEFFF7EF
:100FC8007DFE0000F0B587B001F06CFCFFF7B8FFBC
:100FD800FFF726FEFFF774FEFFF7B0FEFFF7D8FE17
:100FE800FFF7F6FEFFF78EFF604800F077FA8021E2
:100FF800A024E40500220901200001F057FB01228A
:101008008021200001F052FB594A01AB00210191D7
:1010180002920391049200221A745A749A741AE084
:10102800002B0BD101AB5B7C002B00D09AE001AB0D
:101038009B7C002B00D097E04E4C00E04E4C039870
:10104800FFF762FD020021004C4803F0B7F9FA20CF
:10105800800001F04DFC002300938021A024E405CA
:101068000901200001F028FB00228021200001F066
:101078001DFBFA239B0004226946414801F070FFDA
:1010880001228021200001F011FB6B461E88002000
:10109800185E6B465A8802241C5F01231D00154008
:1010A80001A90D7455081D404D74920813408B74A6
:1010B800F3071BD48010FFF747FDFA218905FFF7D6
:1010C8004FFA061C029F0199381CFFF749FA051CC4
:1010D800391CFE208005FFF769FB011C301CFFF757
:1010E8003FFA011C281CFFF79DF801902011FFF71B
:1010F8002BFDF6218905FFF733FA061C01AC049F86
:101108000399381CFFF72CFA051C391CFE208005B2
:10111800FFF74CFB011C301CFFF722FA011C281CAE
:10112800FFF780F803906B4619885A88154803F032
:1011380045F9237C002B00D072E7627C002A00D09E
:101148006EE7A27C002A00D06AE70398FFF7DCFC70
:1011580004000198FFF7D8FC010022000A4803F0B8
:101168002DF974E7094C6AE7094C68E70402002086
:101178009A99993EA055000880550008E85500083E
:10118800F0000020AC550008C8550008905500082C
:1011980070550008FEE7FEE77047704710B501F08C
:1011A80095FB10BD10B5024800F074FB10BDC04699
:1011B8008C00002010B5024802F0A0F910BDC0460E
:1011C800B801002010B5024802F098F910BDC046D9
:1011D800B801002010B5024801F09EFF10BDC046BE
:1011E800F000002010B5024801F096FF10BDC0467F
:1011F8005401002082B00A4B196C01221143196472
:10120800196C0A400092009ADA6B802149050A435A
:10121800DA63DB6B0B400193019B02B07047C04659
:101228000010024010B588B004001422002103A861
:1012380003F0BCF82268144B9A4201D008B010BDE4
:10124800124B196C80204003014319641A6C024048
:101258000192019A596B0122114359635B6B1A4041
:101268000292029B032303930493A02003A9C005C1
:1012780001F060F9002200210C2001F08FFA0C2007
:1012880001F0BCFADAE7C046002401400010024031
:10129800F0B58BB004001422002105A803F086F8ED
:1012A80023683E4A934204D03D4A934225D00BB06E
:1012B800F0BD3C4B196C80204001014319641A6C45
:1012C80002400092009A596B0122114359635B6BEB
:1012D8001A400192019B602305935E3B0693A02070
:1012E80005A9C00501F026F900220021192001F006
:1012F80055FA192001F082FAD9E72A4BD96B8020D8
:10130800C0010143D963DA6B02400292029A5A6B18
:1013180002252A435A635A6B2A400392039A5A6B4E
:10132800012632435A635B6B33400493049B80234A
:101338005B000593069509961B4F05A9380001F037
:10134800F9F880239B0005930695002407940894D8
:10135800FC3BFF3B099305A9380001F0EBF810238B
:1013680005930695079408940996A02005A9C00539
:1013780001F0E0F8402305930695079408943C3B58
:10138800099305A9380001F0D5F8002200211A2098
:1013980001F004FA1A2001F031FA88E70030014020
:1013A80000380040001002400004005010B588B01A
:1013B80004001422002103A802F0F8FF2268194B48
:1013C8009A4201D008B010BD174B196C802000015B
:1013D800014319641A6C02400192019A596B012267
:1013E800114359635B6B1A400292029B80235B0195
:1013F8000393022304930793A02003A9C00501F0D7
:1014080099F8002200210D2001F0C8F90D2001F003
:10141800F5F9002200210E2001F0C0F90E2001F09C
:10142800EDF9CFE7002C01400010024010B586B05E
:1014380004001422002101A802F0B8FF22680D4B15
:101448009A4201D006B010BD0B4A516B01231943D3
:101458005163526B13400093009B80235B00019300
:10146800FE3B02930593A02001A9C00501F062F894
:10147800E8E7C046002C01400010024010B588B0D3
:1014880004001422002103A802F090FF2268114BE7
:101498009A4201D008B010BD0F4BD96B8020800252
:1014A8000143D963DA6B02400192019A596B012218
:1014B800114359635B6B13400293029B0C23039304
:1014C8000A3B04930792A02003A9C00501F032F853
:1014D800E0E7C046004400400010024010B5054B4C
:1014E8001860054B1B68986800230222002102F04F
:1014F8007FFF10BD9C0200200C00002010B50228C0
:1015080001D8012010BD02F027FF09230360002045
:10151800F8E7000010B51400013801280AD8FA23AA
:1015280092B2094800689B0002F03CFD002808D1EF
:10153800200010BD02F010FF092303600120404283
:10154800F7E70520F5E7C0469C02002010B5022801
:1015580001D8002010BD02F0FFFE0923036001201E
:101568004042F7E710B502F0F7FE092303600120B7
:10157800404210BD10B500280AD10123094A10685D
:101588005B42012202F094FD002808D1013010BD11
:1015980002F0E2FE0923036001204042F7E705203C
:1015A800F5E7C0469C02002010B5022804D8802325
:1015B8009B014B60002010BD02F0CEFE09230360A2
:1015C800F8E7000010B503000C4A1268002A0AD098
:1015D8000A4A10680A4A1060C3186A46934206D835
:1015E800064A136010BD054A06491160F0E702F08B
:1015F800B3FE0C23036001204042F3E7940200206D
:1016080098020020B8020020F0B583B0040000233F
:101618000193002800D123E1836D002B13D02368A8
:101628009A68D2001CD49A688E49114080225205CB
:101638000A439A608C4B18688C49FEF767FD0130A5
:101648004000019009E0FFF7EDFD0023E365542217
:10165800A354E4E7019B013B0193019B002BF9D1C3
:1016680023689A68D2001BD4A26D10210A43A26590
:10167800E26D0F390A43E2650120996804252A00C2
:101688000A400D4200D00122A16DC90601D4002AEA
:1016980008D0A36D10221343A365012003B0F0BD49
:1016A8000020EAE7A16D724D29400635FF35294330
:1016B800A1659968C90735D4D9681635A943A568BD
:1016C8002943D96063689B0F9B07E56C1D433C2148
:1016D800615C01291CD021680B69664E33402B439D
:1016E8000B616368C02109068B421CD08021C905A3
:1016F8008B4218D0802109068B4214D05E4E316887
:101708005E4F3940F027BF033B400B4333600AE08C
:10171800216C1943636C1943A36C194329430125B0
:101728000D43D8E71500237E9B03617EC9030B4355
:10173800A67E71030B43216B002901D0802149014A
:101748000B43E1680B432169002949DB80218903A8
:101758000B432C21615C49000B432021615C01296A
:1017680041D0616A002905D0E02676003140A66A9A
:1017780031430B432668F168414F39401943F16002
:10178800266831693F4F39402943316125686969C5
:101798000726B143666B3143696126687169702514
:1017A800A943A56B2D01294371612169002929D11C
:1017B80021688D6A102252422A438A622268D268BE
:1017C80031490A409A4242D0A36D12229343023A09
:1017D8001343A365E36D0F3A1343E36501205DE707
:1017E80049004908B4E7002E03D1802149020B4380
:1017F800B7E7A16D20263143A165E16D1F3E314356
:10180800E165AEE78025AD03A942D7D1072A08D8FC
:101818009100256ECD400F2129400F2901D00132BA
:10182800F4E7012A0DD02568AA6AE269013A920014
:101838001C211140102252428A40216E0A43AA629A
:10184800BCE721688D6A113A2A438A62B6E7002309
:10185800E365A36D03229343023A1343A3651DE78F
:1018680001201BE7E8FFFF6F08000020400D030080
:10187800FDFEFFFF02FCFF1F08270140FFFFC3FF1B
:101888001902FEFF02FCFFDFE7FF3F837047704746
:101898007047000070B5040003681E685D68B307F0
:1018A8000FD5AB070DD5836DDB0604D4826D80237D
:1018B8001B0113438365200000F0EAF92368022224
:1018C8001A60730701D56B0703D4330729D52B0793
:1018D80027D5A36DDB0604D4A26D80239B00134398
:1018E800A3652368D968C0221201114213D1A27ED0
:1018F800002A10D11A6812070DD59A6852073BD4EE
:101908005A680C218A435A60A36D374A134004323F
:10191800FF321343A3652000FFF7B8FF23680C22AA
:101928001A60330601D52B062FD4F30501D5EB0534
:1019380037D4B30501D5AB0540D4F30617D5EB066C
:1019480015D5236B002B03D02368DB689B070BD0CE
:10195800A26D8023DB001343A365E36D02221343CA
:10196800E3652000FFF794FF236810221A60B30490
:1019780001D5AB042FD470BDA36D20221343A365FA
:10198800E36D1F3A1343E365C5E7A26D80235B024D
:101998001343A3652000FFF77AFF236880221A60AB
:1019A800C3E7A26D80239B021343A365200000F0C8
:1019B8006DF92368802252001A60BAE7A26D80236D
:1019C800DB021343A365200000F061F9236880223D
:1019D80092001A60B1E7200000F05BF923688022CA
:1019E80092011A60C7E7C046FEFEFFFFF0B583B05C
:1019F80004000023019305695433C35C012B00D113
:101A080030E154230122C25400688368033216006F
:101A18001E401A4209D0A36D1C321343A36501204E
:101A280054230022E25403B0F0BD4B68022B00D1CE
:101A3800D4E080221206954226D08B4A954223D0C4
:101A48001F221340103A9A40256E95432A000D68CC
:101A58006F032FD1AD0E1F262E409E4016432666DB
:101A68004D68AB080133E269934213D8826A1F2399
:101A78001D40103B1E00AE40B2430E68B60E334008
:101A8800AB401343836205E0826A0B685B035B0B20
:101A980013438362206842690B681B029A438D686E
:101AA8002B40724D2B40134343610B68002B4FDBD7
:101AB8000020B5E7EF07D0D4AE0727D46E0727D4A8
:101AC8002E0727D4EE0627D4AE0627D46E0627D4D1
:101AD8002E0627D4EE0527D4AE0527D46E0527D4C5
:101AE8002E0527D4EE0427D4AE0427D46E0427D4B9
:101AF8002E0427D4EE0327D4AE0327D48027FF0271
:101B08002E003E403D42A8D01226A6E70126A4E7B3
:101B18000226A2E70326A0E704269EE705269CE7FF
:101B280006269AE7072698E7082696E7092694E7FF
:101B38000A2692E70B2690E70C268EE70D268CE7FF
:101B48000E268AE70F2688E7102686E7112684E7FF
:101B5800474A1168E02252040A404648834207D0A7
:101B68004548834220D0454883422AD0002057E781
:101B78000802F5D480231B041A433D490B684048EA
:101B880003401A430A603F4B18683F49FEF7BEFA04
:101B9800013043001B189B000193019B002B5DD073
:101BA800019B013B0193F8E7C801DCD480235B0467
:101BB8001A432F490B68324803401A430A60002031
:101BC8002EE74B024CD48023DB031A4328490B68C9
:101BD8002B4803401A430A60002021E780231B0694
:101BE8009D4202D0204B9D4205D1826A0B685B035F
:101BF8005B0B9A4382620B68002B01DB00200FE726
:101C08001B4A12681B498B4207D01B498B420FD0D5
:101C18001A498B4217D0002002E7A0235B041A4020
:101C280013490B68164803401A430A600020F7E678
:101C3800C0231B041A400E490B68114803401A437D
:101C48000A600020ECE6C0235B041A4008490B68D0
:101C58000B4803401A430A600020E1E60020DFE653
:101C68000020DDE60220DEE60400008000FFFF071A
:101C780008270140001000B0004000B8002000B460
:101C8800FFFF3FFE08000020400D0300704770472B
:101C98007047704770B582B0041E00D129E203680E
:101CA800DB0739D5C14A916838230B40D168032234
:101CB8000A40102B26D0082B26D0636880225202B7
:101CC80093427FD0A022D202934200D181E0B74B49
:101CD8001A68B7490A401A601A68B6490A401A6071
:101CE8006368002B00D180E000F0FCFD0500AF4BDD
:101CF8001B689B0310D400F0F5FD401B6428F6D93F
:101D08000320F7E1032AD6D1A84B1B689B0303D510
:101D18006368002B00D1EFE123689B0731D5A34A04
:101D2800936838210B40D16803220A40102B6AD0EF
:101D3800002B6BD19D4A1268520503D5E268002A30
:101D480000D1DBE1994842689B490A406169090270
:101D58000A434260002B0DD1036898490B40216962
:101D68000B4303600368DB0A07221A40944BD340F5
:101D7800944A1360944B186800F068FD002800D05E
:101D8800BEE123681B0700D481E0884B9A6838239A
:101D98001340182B73D0A369002B00D1B4E0834AF9
:101DA800136E01210B43136600F09CFD05007F4B69
:101DB8001B6E9B076BD400F095FD401B0228F6D9DB
:101DC800032097E1794A116880235B020B43136073
:101DD80086E7764B19688022D2020A431A6019688E
:101DE800802252020A431A607AE700F07BFD050060
:101DF8006E4B1B689B038FD500F074FD401B642855
:101E0800F6D9032076E1022A92D193E7E368002B02
:101E180022D0664A136869490B4021690B43136055
:101E2800116880235B000B43136000F05BFD050025
:101E38005E4B1B685B0506D400F054FD401B02286E
:101E4800F6D9032056E159494B685B4A1340626949
:101E5800120213434B6094E7544A13685B490B40E2
:101E6800136000F03FFD0500504B1B685B0588D5EB
:101E780000F038FD401B0228F6D903203AE14B4B0D
:101E88001B6E9B0703D5A369002B00D13AE1236899
:101E98005B0700D4A2E0454B9A6838231340202BF7
:101EA80045D0424BDB6BDB004AD4404AD16B8020E3
:101EB80040050143D163D36B03400193019B012586
:101EC800434B1B68DB053DD5A368012B4ED0052B82
:101ED80052D0364BDA6D01218A43DA65DA6D033167
:101EE8008A43DA65A368002B50D000F0FBFC06009B
:101EF8002E4BDB6D9B076FD400F0F4FC801B354B39
:101F08009842F5D90320F5E0284A136E01218B4346
:101F1800136600F0E7FC0500244B1B6E9B07B6D543
:101F280000F0E0FC401B0228F6D90320E2E01F4B3A
:101F3800DB6D9B0752D5A368002B4FD10120D9E058
:101F48000025BDE7224A116880235B000B4313601C
:101F580000F0C8FC06001E4B1B68DB05B4D400F07B
:101F6800C1FC801B0228F6D90320C3E00F4AD36DB9
:101F780001210B43D365B5E70C4BDA6D04210A4305
:101F8800DA65DA6D03390A43DA65ABE700F0AAFCD3
:101F98000600064BDB6D9B071ED500F0A3FC801BDB
:101FA8000C4B9842F5D90320A4E0C046001002402B
:101FB800FFFFFEFFFFFFFBFFFF80FFFFFFC7FFFFE5
:101FC8000024F4000800002004000020FFFEFFFFAA
:101FD8000070004088130000012D27D0E369002B12
:101FE80000D191E0514A916838220A40102A5ED007
:101FF800022B21D04D4B1A684D490A401A60DA6805
:1020080003218A43DA60DA684A490A40DA6000F054
:1020180069FC0400454B1B689B0100D478E000F084
:1020280061FC001B0228F5D9032063E03F4AD36B0B
:1020380041490B40D363D1E73C4A13683C490B4004
:10204800136000F04FFC0500384B1B689B0106D558
:1020580000F048FC401B0228F6D903204AE0334A26
:10206800D36836491940236A606A0343A06A0002AC
:102078000343E06A0343206B03430B43D3601168B7
:1020880080235B040B431360D16880235B050B43FB
:10209800D36000F027FC0400244B1B689B0135D457
:1020A80000F020FC001B0228F6D9032022E0012BB7
:1020B80030D01E4BDA6803231340216A8B422BD1A0
:1020C80070231340616A8B4228D1FE21C901114057
:1020D800A36A1B02994223D1F8239B031340E16AA8
:1020E8008B421FD1520F5207236B9A421CD10020FA
:1020F80000E0012002B070BD0120FBE70120F9E7F4
:102108000120F7E70120F5E70020F3E70020F1E7D9
:102118000020EFE70120EDE70120EBE70120E9E7E8
:102128000120E7E70120E5E70120E3E7001002408E
:10213800FFFFFFFEFFFFFEEFFFFFFFEF8C80C11FD9
:1021480010B52A4B9B6838221A4207D1274B1A68C8
:10215800D20A072313402648D84010BD234B9A685B
:1021680038231340082B3BD0204B9A683823134060
:10217800102B0DD01D4B9A6838231340202B31D0DB
:102188001A4B9A6838231340182B26D00020E4E70E
:10219800164AD1680D3B0B40D2681209072111403D
:1021A8000131032B0FD01248FDF7B0FF0F4BDA684F
:1021B800120A7F23134058430C4BD968490F013149
:1021C800FDF7A4FFC9E70B48FDF7A0FF074BDA6846
:1021D800120A7F2313405843EEE7FA20C001BCE7F8
:1021E8000448BAE780200002B7E7C0460010024062
:1021F8000024F40000127A0070B504000D000028D5
:1022080000D1AAE0574B1A68072313408B4221D309
:1022180023689A070ED55B0705D5534A9168E023D2
:10222800DB010B439360504A936850490B40A16807
:102238000B4393602368DB0754D56368012B20D0D8
:10224800022B3BD0002B3FD1474A126852051CD4C1
:1022580001206AE0434A136807218B432B4313602C
:1022680000F040FB06003F4B1A6807231340AB42BF
:10227800CED000F037FB801B3D4A9042F3D90320B3
:1022880053E0394A1268920369D537498A680720AA
:10229800824313438B6000F025FB0600324B9B689A
:1022A80038221A406368DB009A421BD000F01AFB00
:1022B800801B2F4B9842F1D9032036E02A4A126836
:1022C8009201E2D4012030E0032B05D0264AD26DDA
:1022D8009207DAD4012028E0234A126E9207D4D458
:1022E800012022E01F4B1A6807231340AB421DD878
:1022F80023685B0706D51C4A93681E490B40E168B2
:102308000B439360FFF71CFF174B9A68120A0F23C1
:1023180013409B00184A9A581F231340D840174B64
:102328001860174B186800F091FA70BD0D4A1368D1
:1023380007218B432B43136000F0D4FA0600094BA6
:102348001A6807231340AB42D2D000F0CBFA801BA7
:10235800074B9842F3D90320E7E70120E5E701207E
:10236800E3E7C0460020024000100240FFF0FFFFF4
:1023780088130000FF8FFFFF705600080800002038
:1023880004000020014B18687047C0460800002070
:1023980010B5FFF7F7FF064B9A68120B0723134097
:1023A8009B00044A9A581F231340D84010BDC046CA
:1023B80000100240B0560008F0B583B0040003686E
:1023C8009B0362D5534BDB6BDB001ED4514AD16BA8
:1023D800802040050143D163D36B03400193019BE7
:1023E80001264D4A116880235B000B43136000F0FF
:1023F80079FA0500484B1B68DB0508D400F072FA2F
:10240800401B0228F6D9032502E00026E9E700254B
:10241800002D23D13F4BD96DC02292000B001340F1
:10242800114210D062699A420DD03A4AD36D3B49A5
:102438000B40D06D802149020143D165D16D3848E8
:102448000140D165D365DB0710D4002D06D1314A90
:10245800D36D32490B4061690B43D365012E15D109
:102468002C4AD36B2F490B40D3630FE000F03AFAA4
:102478000700284BDB6D9B07E7D400F033FAC01B3D
:10248800294B9842F5D90325DFE700252368DB07A8
:1024980006D5204A536D03218B4361680B4353656E
:1024A80023689B0606D51B4A536D20490B40A1683B
:1024B8000B43536523685B040BD5164A536D9B0089
:1024C8009B0821690B4353658023DB0522699A42E7
:1024D80011D023681B050BD50E4A536D14490B40C8
:1024E800E1680B435365E2688023DB019A4209D017
:1024F800280003B0F0BD074AD16880235B020B4374
:10250800D360E6E7034AD16880235B020B43D360BC
:10251800EEE7C0460010024000700040FFFCFFFFDD
:10252800FFFFFEFFFFFFFFEF88130000FFCFFFFF55
:10253800FF3FFFFFF0B500235AE084685F000326E1
:10254800BE40B4432600CC68BC4034438460446831
:1025580094434A681609012232409A402243426055
:1025680056E0DC080834A400265805321A409200C8
:102578000F279740BE430F6997403A0032432250D5
:102588005AE0032600E00026A64034003C43434EB0
:102598001832920094518022B458EA432600AE4380
:1025A8004F68FF0301D52C4326003C4C8027E65199
:1025B8008426A459260016404F68BF0301D52C4332
:1025C8002600364C8427E6512468260016404F68BA
:1025D800FF0201D52C432600304C26606468224057
:1025E8004E68B60201D52A0022432C4C62600133A2
:1025F8000C682200DA404FD001229A40150025408D
:102608002242F4D003244E683440013C012C94D972
:1026180003224C682240032A09D0C2685E000324C2
:10262800B440A24314008A68B2402243C260032225
:102638004C682240022A94D004685E0003221700E6
:10264800B740BC434F683A40B24022430260C022C0
:1026580092024C681442CAD09A0814001834A40094
:102668000E4EA75903241C40E4000F26A640B7438A
:10267800A026F605B04286D0094EB04208D0094ED1
:10268800B04207D0084EB04200D17AE705267BE772
:10269800012679E7022677E7F0BDC0460018024018
:1026A8000004005000080050000C0050002A01D01F
:1026B800816170478162FCE7426913000B401B048B
:1026C800914319438161704770B52523C35C022B80
:1026D80003D00423C363012070BD026813680E2170
:1026E8008B43136001680A6801239A430A60416CAE
:1026F8000A68134C22400A60124C62681C21056C5F
:1027080029408B4013436360836CC26C5A60036D2D
:10271800002B06D01A680A490A401A60436D826D78
:102728005A6025230122C254013B0022C254836B04
:10273800002B02D098470020CEE70020CCE7C04607
:10274800FFFEFFFF0000024010B5104A1368104951
:102758000B400343136080239B00984201D0002064
:1027680010BD0C4B1B685800C01840000A49FDF703
:10277800CDFC0130054B5B695B0503D5002803D010
:102788000138F7E70020EBE70320E9E70070004095
:10279800FFF9FFFF0800002040420F0070B5002835
:1027A80011DB8308134EC0339B009D59032420403E
:1027B800C000FF2214008440A54389010A408240DA
:1027C8002A439A5170BD0F230340083B9B080633E8
:1027D8009B00094A944663445D6803242040C00076
:1027E800FF2214008440A54389010A4082402A43FD
:1027F8005A60E7E700E100E000ED00E0002805DBB3
:102808001F2318401E3B8340014A13607047C0468F
:1028180000E100E0013880235B0498420FD2094AA6
:1028280050600948036A1B021B0AC02109060B43B2
:102838000362002393600733136000207047012070
:10284800FCE7C04610E000E000ED00E010B5040031
:10285800114B1978002901D1012010BDFA20800000
:10286800FDF754FC01000D4B1868FDF74FFCFFF70E
:10287800D1FF00280DD1032C01D90120EDE701304B
:10288800002221004042FFF789FF054B1C60002011
:10289800E3E70120E1E7C04600000020080000202F
:1028A8000400002010B5084A116880235B000B4320
:1028B80013600320FFF7CAFF041E02D00124200082
:1028C80010BDFEF797FCFAE700200240034B1B7887
:1028D800034A11685B1813607047C0460000002067
:1028E800A0020020014B18687047C046A0020020D3
:1028F80070B50400FFF7F6FF0500631C02D0044B17
:102908001B78E418FFF7EEFF401BA042FAD370BD16
:1029180000000020F0B5D6464F464646C0B582B006
:1029280006000D0090461F00FFF7DCFF0A9B181AEF
:102938008146B944FFF7D6FF82462F4B1B685B01DF
:102948001B0D4A465343019304E0012398454CD09C
:102958007B1C06D133689C682C40AC42F5D0002320
:10296800F4E7FFF7BFFF5346C01A484509D24B4664
:10297800002B06D0019B002B35D0019B013B019316
:10298800E8E732685368E0218B43536082235B0099
:1029980072689A420CD080239B01B26A9A4216D080
:1029A8005D230122F254013B0022F25403201DE072
:1029B800B36880221202934203D08022D20093424D
:1029C800E9D13268136840218B431360E3E732682A
:1029D80013680A490B4013603268116880239B0111
:1029E8000B431360DCE79946C7E7002002B0E0BC60
:1029F800BA46B146A846F0BD08000020FFDFFFFF39
:102A0800F0B5DE4657464E464546E0B583B007006A
:102A18000D00160098466B460022DA70FFF762FF39
:102A28000C9B181A40448146FFF75CFF82463B68BE
:102A38009B46364B1A6893009A18D3009B1A1B0DB5
:102A48004A465343019302E04346013311D13B68A0
:102A58009C682C40B44250D0C023DB009D42F3D187
:102A6800002EF1D15B461B7BDBB26A46D370D3786C
:102A7800EAE7FFF737FF5346C01A484509D24B46E5
:102A8800002B06D0019B002B35D0019B013B019305
:102A9800DDE73A685368E0218B43536082235B008B
:102AA8007A689A420CD080239B01BA6A9A4216D05F
:102AB8005D230122FA54013B0022FA5403201DE051
:102AC800BB6880221202934203D08022D200934234
:102AD800E9D13A68136840218B431360E3E73A6809
:102AE80013680B490B4013603A68116880239B01F7
:102AF8000B431360DCE79946C7E7002003B0F0BC3E
:102B0800BB46B246A946A046F0BDC0460800002014
:102B1800FFDFFFFF70B582B004000D001600C02172
:102B280000922B0000224901FFF76AFF002818D104
:102B380000962B00002280212000FFF7EBFE0028E2
:102B480016D1C02100962B000022C9002000FFF7F3
:102B580057FF00280AD0236E202213432366032040
:102B680004E0236E202213432366032002B070BDC5
:102B7800236E2022134323660320F7E770B582B043
:102B880004000D00160082235B0042689A420FD0B1
:102B980000962B00002280212000FFF7BBFE0028B2
:102BA80015D182235B0062689A4216D002B070BDCC
:102BB800836880221202934203D08022D20093427B
:102BC800E6D12268136840218B431360E0E7236E47
:102BD8002022134323660320E8E7A3688022120219
:102BE800934203D08022D2009342DFD1C0210096C5
:102BF8002B000022C9002000FFF702FF0028D5D0D3
:102C0800236E2022134323660320CFE770B5041EEA
:102C180000D178E0436A002B07D10533FF334268BF
:102C28009A4205D00023C36102E000230361436197
:102C38000023A3625D33E35C002B5AD05D2302229C
:102C4800E2542268136840218B431360E368E02252
:102C5800D200934254D90022F02109018B4205D0B9
:102C6800E021C9008B4201D00023A36282235B00CC
:102C780061680B4084210902A06801400B430221CE
:102C8800206901400B43012160690840034380200B
:102C98008000A569284003433820E569284003439C
:102CA8008020256A2840034380208001A56A2840A7
:102CB800034320680360608B042303401020656A87
:102CC800284003430820656B28400343F020000197
:102CD800E568284003432068134343602268D369AA
:102CE8000A480340D361002323665D33E154002082
:102CF80070BD5C330022E2542000FEF7C9FA9DE75C
:102D080080225201A8E70120F2E7C046FFF7FFFF43
:102D1800F0B583B00400009101921E00089D5C2369
:102D2800C35C012B00D116E15C230122C254FFF7DA
:102D3800D9FD07005D23E35CD9B26268012B0BD093
:102D480082235B009A4200D0ECE0A368002B00D0FD
:102D5800F1E0042900D0F0E0009B002B00D1EEE068
:102D6800019B002B00D1ECE0002E00D1EBE05D23AD
:102D7800E35C042B02D05D230522E2540023236682
:102D8800019A22644622A652023AA652009AA263E7
:102D9800E687A687E3642365E023DB00E2689A42BE
:102DA80023D9226853686D490B40536023681A6819
:102DB800520603D41A6840210A431A60E023DB0054
:102DC800E2689A4254D96368002B01D0012E0AD1D7
:102DD8002368A26B1288DA60A36B0233A363E38FC4
:102DE800013B9BB2E38701262EE0226851688023CD
:102DF8005B010B435360D9E7A26B1288DA60A36BBF
:102E08000233A363E38F013B9BB2E3870026236869
:102E18009A68D20710D54622A25A92B2002A0BD03D
:102E2800DB68226C1380236C023323644622A35A86
:102E3800013B9BB2A3520126FFF754FDC01BA842D9
:102E480002D36B1C00D080E0E38F9BB2002B04D12F
:102E58004633E35A9BB2002B59D023689A689207ED
:102E6800D5D5E28F92B2002AD1D0012ECFD1C3E7B7
:102E78006368002B01D0012E0AD1A36B1B7822684E
:102E88001373A36B0133A363E38F013B9BB2E38707
:102E980001261DE023689A68D20710D54622A25A57
:102EA80092B2002A0BD01B7B226C1370236C013367
:102EB80023644622A35A013B9BB2A3520126FFF783
:102EC80011FDC01BA84201D36B1C40D1002D40D07E
:102ED800E38F9BB2002B04D14633E35A9BB2002BFD
:102EE80015D023689A689207D4D5E28F92B2002A47
:102EF800D0D0012ECED1A26B12781A73A36B0133F6
:102F0800A363E38F013B9BB2E3870026C2E73A0045
:102F180029002000FFF7FEFD002804D020232366A7
:102F2800012000E002205D230122E254013B00223F
:102F3800E25403B0F0BD0220F5E70220F3E70120D8
:102F4800F1E70120EFE70120EDE70320EBE703209D
:102F5800E9E70320E7E70220EBE7C046FFEFFFFFC2
:102F6800F0B5CE46474680B583B004008946904602
:102F78001D0082235B0042689A4246D05C23E35CD2
:102F8800012B00D1BFE05C230122E254FFF7AAFC29
:102F980006005D23E35CDFB2012B00D09EE04B46C8
:102FA800002B00D19BE04346002B00D197E05D2326
:102FB8000422E254002323664A46226444224146FE
:102FC800A1520232A152A363A387E387E364236576
:102FD800E023DB00E2689A4224D9226853684B490F
:102FE8000B40536080231B02A2689A4221D02368B9
:102FF8001A68520603D41A6840210A431A60E0236B
:10300800DB00E2689A4246D827E08368002BB5D1F6
:103018005D330422C254009543460A00FFF778FE48
:10302800070062E02268516880235B010B4353600C
:10303800D8E72268136840218B431360226813681D
:1030480033490B401360D2E7FFF74CFC801BA842C2
:1030580001D36B1C4FD1002D4FD04623E15A89B2C2
:1030680000292DD023689A68D207EDD51B7B226CE6
:103078001370236C013323644622A35A013B9BB28D
:10308800A352EAE7FFF72EFC801BA84201D36B1C72
:1030980035D1002D35D04623E15A89B200290FD009
:1030A80023689A68D207EDD5DB68226C1380236CFD
:1030B800023323644622A35A013B9BB2A352EAE798
:1030C800320029002000FFF759FD002801D02023F5
:1030D8002366236E002B02D1002700E002275D2320
:1030E8000122E254013B0022E254380003B0C0BC84
:1030F800B946B046F0BD0327F1E70327EFE70327FA
:10310800EDE70327EBE70227EFE7C046FFEFFFFFF6
:10311800FFBFFFFF70470000F0B585B004000268EC
:10312800556893689809012106000E40084203D1AA
:10313800D90701D569066AD4990701D529066AD441
:10314800590901200F000740014203D1002E01D187
:10315800D90563D5A90661D5002E0ED05D21615C25
:1031680003295DD0216E04200143216600210091CE
:10317800D1680091916800910099002F0CD0216EC0
:103188000120014321660021029191680291116892
:103198003F3081431160029ADB0509D5236E08226E
:1031A800134323660023039323689B680393039BBD
:1031B800236E002B32D022685368E0218B43536082
:1031C8005D230122E254AB0732D022685368DD390F
:1031D8008B435360A36D002B0AD0174A9A63A06DE6
:1031E800FFF772FA002803D0236E402213432366A8
:1031F800636D002B12D0104A9A63606DFFF764FA72
:1032080000280BD0236E40221343236606E0E36CAC
:103218002000984702E0236D2000984705B0F0BDD4
:1032280000230193D368019393680193019BF5E709
:103238002000FFF76FFFF1E74532000810B5806AFC
:10324800002346228352C387FFF764FF10BD0000A6
:1032580030B5036A012293430362036A42688469B2
:10326800154D2C400D682C430225AB438D682B432C
:10327800124DA84205D0124DA84202D0114DA842C5
:1032880005D10825AB43CD682B430425AB430B4D33
:10329800A84205D00A4DA84202D00A4DA84205D13D
:1032A800094D2A404D692A438D692A434260846149
:1032B8004A684263036230BD8CFFFEFF002C014068
:1032C8000044014000480140FFFCFFFF70B5036A5D
:1032D800184A13400362036A4468C269164D2A40BB
:1032E8000E681643154A13408A6812021343144A9B
:1032F800904216D0124A904205D0124A904202D00B
:10330800114A904207D1114A22404C6924011443C2
:103318008A6915012C434460C6614A68C263036226
:1033280070BD0B4A1A40CB681B021343094A13406D
:10333800E0E7C046FFFEFFFF8CFFFEFFFFFDFFFF3B
:10334800002C01400044014000480140FFCFFFFF2E
:10335800FFF7FFFFFFFBFFFF30B5036A114A134079
:103368000362036A4568C2690F4C22400C68240254
:1033780022430E4C1C408B681B0323430C4CA04279
:1033880005D00C4CA04202D00B4CA04204D10B4CEF
:1033980025404C69A40125434560C2614A6802641E
:1033A800036230BDFFEFFFFFFF8CFFFEFFDFFFFF73
:1033B800002C01400044014000480140FFBFFFFFCE
:1033C80030B5036A114A13400362036A4268446DC8
:1033D8000F4D2C400D682C430E4D1D408B681B046F
:1033E8002B430D4DA84205D00C4DA84202D00C4DE0
:1033F800A84204D1054D2A404D692D022A43426056
:1034080044654A688265036230BDC046FFFFFEFF1F
:103418008FFFFEFFFFFFFDFF002C0140004401402D
:103428000048014030B5036A114A13400362036A39
:103438004568426D0F4C22400C68240222430E4C12
:103448001C408B681B0523430C4CA04205D00C4C38
:10345800A04202D00B4CA04204D10B4C25404C6931
:10346800A4022543456042654A68C265036230BDCF
:10347800FFFFEFFFFF8FFFFEFFFFDFFF002C014084
:103488000044014000480140FFFFFBFF30B5036ADC
:10349800046A0125AC4304628469EF35AC43120128
:1034A80022430A24A3430B438261036230BD000018
:1034B80030B5036A1024A34303628469036A054D87
:1034C8002C4012032243A024A3430901194382611B
:1034D800016230BDFF0FFFFF8368034A13400B43AF
:1034E80007210B43836070478FFFCFFF70477047FA
:1034F80070477047704770477047000010B5040068
:1035080003681A6992070FD5DA6892070CD5032267
:1035180052421A610123037703689B699B076AD0AB
:10352800FFF7E8FF0023237723681A69520712D5AB
:10353800DA6852070FD5052252421A61022323770F
:1035480023689A69C0239B001A425AD02000FFF7CB
:10355800D1FF0023237723681A69120710D5DA6888
:1035680012070DD5092252421A61042323772368D2
:10357800DB699B074CD02000FFF7BCFF00232377B3
:1035880023681A69D20612D5DA68D2060FD5112235
:1035980052421A61082323772368DA69C0239B0003
:1035A8001A423CD02000FFF7A5FF002323772368A9
:1035B8001A69D20702D5DA68D20737D423681A699C
:1035C800120602D5DA68120637D423681A69D205BA
:1035D80002D5DA68120637D423681A69520602D56A
:1035E800DA68520636D423681A69920602D5DA6870
:1035F800920636D410BDFFF77CFF2000FFF77BFF53
:1036080090E72000FFF775FF2000FFF774FFA0E7A1
:103618002000FFF76EFF2000FFF76DFFAEE72000E8
:10362800FFF767FF2000FFF766FFBEE7022252425E
:103638001A612000FFF75CFFC0E7812252421A613D
:10364800200000F0F0FAC0E7094A1A61200000F0F3
:10365800EBFAC1E7412252421A612000FFF74CFF02
:10366800C1E7212252421A61200000F0DBFAC1E7CB
:10367800FFFEFFFF03681A4A904202D0194A90429F
:1036880003D1702293434A681343154A90420BD0E2
:10369800144A904208D0144A904205D0134A9042E6
:1036A80002D0134A904203D1124A1340CA68134306
:1036B800802293434A69134303608B68C3620B6893
:1036C8008362074B984205D0084B984202D0084BBA
:1036D800984201D10B690363012343617047C046D7
:1036E800002C01400004004000200040004401403C
:1036F80000480140FFFCFFFF70B5041E2AD03D239F
:10370800C35C002B20D03D2502236355210001C94D
:10371800FFF7B0FF01234822A3540A3AA354013209
:10372800A3540132A3540132A3540132A3540132E9
:10373800A3540132A3540132A3540132A3540132D9
:10374800A3546355002070BD3C330022C254FDF7DA
:103758002DFED8E70120F6E770B5041E2AD03D23D8
:10376800C35C002B20D03D2502236355210001C9ED
:10377800FFF780FF01234822A3540A3AA3540132D9
:10378800A3540132A3540132A3540132A354013289
:10379800A3540132A3540132A3540132A354013279
:1037A800A3546355002070BD3C330022C254FFF778
:1037B8009DFED8E70120F6E770B504000D0000284B
:1037C80027D03D23C35C002B1DD03D260223A355E3
:1037D800210001C9FFF74EFF2268136808218B43B7
:1037E8001360236819680D431D6001234822A35400
:1037F8000A3AA3540132A3540532A3540132A35404
:10380800A355002070BD3C330022C254FFF76FFE61
:10381800DBE70120F6E7000030B5036A1022934386
:103828000362036A45688469164A14400A681202EA
:103838001443202293438A6812011343124A904288
:1038480016D0114A904205D0104A904202D0104A30
:10385800904207D10F4A2A404D69AD0015438A6945
:1038680092001543456084614A688263036230BDF3
:10387800802293431A00CB681B01134340229343D1
:10388800DFE7C046FF8CFFFE002C014000440140EA
:1038980000480140FFF3FFFF10B504003C23C35C60
:1038A800012B24D03C230120E054142A06D892008E
:1038B800104B9B589F462068FFF7CAFC3C23002208
:1038C800E254002010BD2068FFF7A6FFF6E7206845
:1038D800FFF7FCFCF2E72068FFF73EFDEEE7206803
:1038E800FFF76EFDEAE72068FFF79CFDE6E7022098
:1038F800E8E7C0460456000830B58468034D2C40FC
:103908001B0213430B432343836030BDFF00FFFFBB
:1039180010B504003C23C35C012B66D03C23012274
:10392800C25401330132C2540268936830480340DC
:1039380093600B68602B44D024D8402B4BD00BD914
:10394800502B0ED1CA6849682068FFF79FFD5021A7
:103958002068FFF7C1FD04E0202B0ED009D9302BD9
:103968000BD03D230122E254013B0022E254002007
:1039780010BD002B01D0102BF3D119002068FFF7E0
:10398800ABFDEEE7702B10D0802292019342E8D174
:10399800CB684A6889682068FFF7AEFF226891689B
:1039A8008023DB010B439360DBE7CB684A688968B7
:1039B8002068FFF7A1FF2268936877210B43936083
:1039C800CFE7CA6849682068FFF772FD6021206860
:1039D800FFF782FDC5E7CA6849682068FFF756FD0A
:1039E80040212068FFF778FDBBE70220C0E7C0460A
:1039F8008800CEFF70B502689368224C23404C685B
:103A08002343214C23400C68234393604B68602B6D
:103A18002CD00CD8402B14D0502B06D10A698968B9
:103A28000068FFF733FD002028E0002026E0702B17
:103A380023D10B698A68C9680068FFF75DFF002019
:103A48001CE00B68052B1AD003681E6A1A6A012449
:103A5800A2431A620568AC69F02294430B691B0102
:103A68002343AB6103681E62002007E00A69896886
:103A78000068FFF71DFD002000E0002070BD012058
:103A8800FCE7C0468FFFCFFFF8FFFEFF10B504002C
:103A98003C23C35C012B22D03C230122C2540133B6
:103AA8000132C254FFF7A6FF002810D12268D3685C
:103AB80040218B43D3602268D3680A490B40D36006
:103AC8003D230122E254013B0022E25410BD3D2374
:103AD8000122E254013B0022E2540120F6E70220D1
:103AE800F4E7C046FFBFFFFF30B53C23C35C012BA2
:103AF80029D03C230122C25401330132C254026846
:103B080053689468114DAA4218D07025AB430D68CC
:103B18002B43536003680D4A934202D00C4A9342E8
:103B280004D1802294438A6814439C603D23012277
:103B3800C254013B0022C254002030BD054D2B4029
:103B48004D682B43E1E70220F7E7C046002C01400F
:103B580000040040FFFF0FFF10B53C23C35C012B9E
:103B680044D03C230122C254214BCA6813408A68BE
:103B78001343204A13404A6813431F4A13400A68F4
:103B880013431E4A13400A6913431D4A13404A69E6
:103B980013431C4A13400A6B13431B4A13408A6998
:103BA800120413430268194CA24208D0174CA242CF
:103BB8000AD053643C230022C254002010BD144C88
:103BC8002340CC692343F1E7124C23408C6A240537
:103BD8002343114C23400C6A2343104C23404C6A66
:103BE80023430F4C2340C96A0B43E2E70220E5E771
:103BF800FFFCFFFFFFFBFFFFFFF7FFFFFFEFFFFFEC
:103C0800FFDFFFFFFFBFFFFFFFFFF0FF002C0140BA
:103C1800FFFFFFEFFFFF0FFFFFFFFFFEFFFFFFFDAF
:103C2800FFFFFFDF704770477047000010B50400C2
:103C380083680269134342691343C26913430168E5
:103C48000A685D48024013430B60226853685B4969
:103C58000B40E1680B435360226AA3691A43216849
:103C68008B685748034013438B602268D36A0F213F
:103C78008B43616A0B43D3622368524A93422AD02A
:103C8800514A934238D01023E069802212029042B0
:103C98003CD0042B00D188E071D8002B00D17DE006
:103CA800022B6AD14948636A5B00494A995AFCF772
:103CB8002DFA63685B08C0186168FCF727FA0004EE
:103CC800000C0200103A434B9A4200D972E0236874
:103CD800D860002059E0404B5A6D03231340022B53
:103CE8000CD005D8002B0BD0012B0BD10333CBE71D
:103CF800032B09D10533C7E70023C5E70223C3E730
:103D08000023C1E71023BFE71023BDE7042B31D000
:103D180026D8002B28D0022B20D12C48636A5B00C0
:103D28002B4A995AFCF7F2F9400063685B08C018FF
:103D38006168FCF7EBF983B20004000C010010394C
:103D4800244A914234D80F2293431A00400807238B
:103D5800184010432368D860002016E0012014E0C2
:103D6800082BDBD0012010E0FEF712FB0028D5D18C
:103D780000200AE0FEF7E4F9F8E7012005E0082B47
:103D880002D1802000028EE7012001236A22A3527B
:103D9800023AA35200232367636710BDFEF7F8FABF
:103DA800002800D07FE70020EFE7FEF7C9F9F7E722
:103DB8000120EAE70120E8E7F369FFCFFFCFFFFF23
:103DC800FFF4FF1100380140004400400024F400D3
:103DD80058560008EFFF000000100240836ADB0716
:103DE80006D5026853682C490B40C16A0B435360DF
:103DF800836A9B0706D50268536828490B40016B04
:103E08000B435360836A5B0706D5026853682449ED
:103E18000B40416B0B435360836A1B0706D502684E
:103E2800536820490B40816B0B435360836ADB0660
:103E380006D5026893681C490B40C16B0B4393601D
:103E4800836A9B0606D50268936818490B40016C83
:103E58000B439360836A5B060BD502685368144969
:103E68000B40416C0B43536080235B03426C9A42C6
:103E78000AD0836A1B0606D5026853680D490B40B1
:103E8800C16C0B4353607047026853680A490B4082
:103E9800816C0B435360ECE7FFFFFDFFFFFFFEFF64
:103EA800FFFFFBFFFF7FFFFFFFEFFFFFFFDFFFFFCE
:103EB800FFFFEFFFFFFFF7FFFFFF9FFFF8B5CE46BD
:103EC800474680B506000D0017009946089B98469E
:103ED80005E001218F425ED14346013306D13368A4
:103EE800DC692C40AC42F4D00021F3E7FEF7FAFC81
:103EF8004B46C01A40452ED84346002B2BD033687A
:103F08001A685207EBD5DA691205E8D58022120142
:103F18001A62EFF31080012282F3108831680B686F
:103F28001F4C23400B6080F31088EFF3108082F35E
:103F3800108831688B6893438B6080F31088202346
:103F48008332B3500432B3500432B350603300228A
:103F5800F254032020E0EFF31080012282F310884E
:103F680031680B680E4C23400B6080F31088EFF328
:103F7800108082F3108831688B6893438B6080F3DC
:103F8800108820238332B3500432B35060330022A8
:103F9800F254032000E00020C0BCB946B046F8BD8A
:103FA8005FFEFFFFF0B5C64600B582B004000D0005
:103FB80090461E008423C358202B6AD1002900D1C3
:103FC8006CE0002A00D16BE080235B0182689A4292
:103FD8001FD08023E35C012B64D080230122E254AC
:103FE8000C330022E250083B2132E250FEF77AFC03
:103FF800070054234246E2520233E25280235B0117
:10400800A2689A420CD00023984680230022E254EA
:104018001DE00369002BDCD1CB07DAD5012039E09C
:104028002369002B02D000239846EEE7A846002516
:10403800EBE743461B882268DB05DB0D936202230E
:104048009C46E0445623E25A013A92B2E252562381
:10405800E35A9BB2002B0FD000963B000022802130
:104068002000FFF72BFF00281ED1002DE1D02A7871
:1040780023689A620135E5E700963B00002240215B
:104088002000FFF71BFF002810D184232022E250D4
:1040980000E0022002B080BCB846F0BD0120F9E77C
:1040A8000120F7E70220F5E70320F3E70320F1E713
:1040B800F0B5CE46474680B583B004000D00904663
:1040C8001E008823C358202B00D097E0002900D178
:1040D8009AE0002A00D199E080235B0182689A4225
:1040E80024D08023E35C012B00D191E080230122BE
:1040F800E25400238B32A350043A2221A150E366F4
:10410800FEF7F0FB07005C234246E2520233E2521C
:10411800A3688022520193420FD0002B1CD1226940
:10412800002A15D16032FF21A1521CE00369002B3F
:10413800D7D1CB07D5D5012061E02269002A03D168
:1041480060323549A1520EE06022FF21A1520AE0F7
:1041580060227F21A15206E08022520593420FD0AF
:1041680060220021A1526022A25A90468022520168
:10417800934210D00023994680230022E25421E084
:104188002269002A03D160327F21A152EBE7602225
:104198003F21A152E7E72369002B02D0002399466B
:1041A800EAE7A9460025E7E723685B6A4246134029
:1041B8004A46138002239C46E1445E23E25A013AB0
:1041C80092B2E2525E23E35A9BB2002B11D00096C2
:1041D8003B00002220212000FFF770FE002819D1A3
:1041E800002DE1D023685B6A424613402B700135ED
:1041F800E3E788232022E250002000E0022003B0F9
:10420800C0BCB946B046F0BD0120F8E70120F6E78A
:104218000220F4E70320F2E7FF01000030B583B085
:1042280004008C230022C250FEF75CFB05002268C4
:10423800126813070FD423681B685B0718D4202360
:104248008422A3500432A3500023E366083AA354FF
:10425800002003B030BD80210C4B009303000022E6
:1042680089032000FFF72AFE0028E4D00320F0E7A6
:104278008021064B00932B000022C9032000FFF782
:104288001DFE0028DBD00320E3E7C046FFFFFF0147
:1042980010B5041E30D08423C358002B22D08423A9
:1042A8002422E2502268136801218B431360200006
:1042B800FFF7BCFC012814D0A36A002B18D1226890
:1042C80053680E490B405360226893682A218B4338
:1042D80093602268136829390B4313602000FFF7A5
:1042E8009DFF10BD80330022C254FDF7C7F8D6E702
:1042F8002000FFF773FDE2E70120F2E7FFB7FFFFB9
:10430800704700000D488546FFF7FAFF0C480D4935
:104318000D4A002302E0D458C4500433C4188C4218
:10432800F9D30A4A0A4C002301E013600432A2427E
:10433800FBD300F017F8FCF745FEFEE7002000204D
:104348000000002070000020705700087000002056
:10435800B4020020FEE70000014B18687047C04611
:104368000C00002070B500260C4D0D4C641BA410E9
:10437800A64209D1002601F0CBF80A4D0A4C641B6D
:10438800A410A64205D170BDB300EB58984701367A
:10439800EEE7B300EB5898470136F2E76857000894
:1043A80068570008685700086C570008030082180F
:1043B800934200D1704719700133F9E70FB40B4BE2
:1043C80013B51C68002C05D0A369002B02D120006E
:1043D80000F004FA05AB2000049AA168019300F0EC
:1043E80021FC16BC08BC04B01847C0460C000020CD
:1043F800F0B51D005D4B85B01E6804000F000092EB
:10440800002E05D0B369002B02D1300000F0E6F988
:10441800574B9C4261D17468009B022B05D0012B3D
:1044280000D99DE0002D00DA9AE0636EDB0705D421
:10443800A3899B0502D4A06D00F071FA2100300019
:1044480000F02AF9616B002908D02300443399420F
:1044580002D0300000F0DCFA002363630023A3617C
:104468006360A3891B0603D53000216900F0D0FAE8
:10447800A389404A1340A381009B022B00D169E025
:1044880003AB2100300002AA00F04CFAA3890343D1
:10449800A381002D2BD1029D280000F0AFFA071E42
:1044A80053D1029B0193AB4249D101256D420223AE
:1044B800A289616E13430022A26022004732226063
:1044C800226101221BB2A3816261114234D19B0592
:1044D80032D4A06D00F024FA2EE0274B9C4201D183
:1044E800B46899E7254B9C4296D1F46894E7002F6D
:1044F800D2D0B369002B02D1300000F06FF9009BD5
:10450800012B02D1A2891343A381A2890823110098
:1045180027602761656119401A421FD0D3071BD550
:1045280000236D42A360A561616E01230D001D404B
:10453800194218D19305CCD5280005B0F0BD0198D3
:1045480000F05CFA019D071EAFD08023A2891343B7
:10455800A381CEE70025AAE7A560E5E7A160E3E728
:1045680001256D42E8E70025E6E7C0460C0000207B
:10457800F45600085CF3FFFF14570008D4560008EF
:10458800F7B58B8905000C001A075FD44A68002A22
:1045980004DC0A6C002A01DC0020FEBDE76A002F5B
:1045A800FAD0002280212E682A601A0049010A40A8
:1045B8000B4234D0606DA3895B0706D56368C01AC7
:1045C800636B002B01D0236CC01A0200216A002300
:1045D8002800E76AB847A189431C06D12B681D2B20
:1045E80031D82C4ADA40D3072DD5002363602369DC
:1045F8002360CB0405D5431C02D12B68002B00D1C6
:104608006065616B2E600029C6D02300443399424F
:1046180002D0280000F0FCF900206063BDE7012308
:104628002800216AB847431CC5D12B68002BC2D08B
:104638001D2B01D0162B01D12E60ADE74023A28996
:104648001343A381A9E740230B43FAE70F69002F1F
:10465800A2D00A680F60D21B019200229B0700D1EA
:104668004A69A260019B002B00DC95E73A0028000C
:10467800019B216AA66AB047002806DC4023012076
:10468800A28940421343A38187E7019B3F181B1A65
:104698000193E7E7010040200B6970B505000C00A5
:1046A800002B02D10025280070BD002804D08369A2
:1046B800002B01D100F092F8144B9C421BD16C687E
:1046C8000C22A35E002BEDD0626ED20704D49B05AA
:1046D80002D4A06D00F023F928002100FFF750FF55
:1046E800636E0500DB07DED4A3899B05DBD4A06DD0
:1046F80000F016F9D7E7064B9C4201D1AC68DFE71A
:10470800044B9C42DCD1EC68DAE7C046F45600085A
:1047180014570008D4560008002310B5040003609D
:1047280043608360818143661900C28103614361EC
:10473800836108225C30FFF739FE054B246263620F
:10474800044BA362044BE362044B236310BDC046D1
:10475800C9510008F15100082952000855520008B3
:1047680010B5024900F0BAF810BDC046A1460008CD
:1047780070B568254A1E55430E002900743100F0B3
:10478800B3F9041E08D000212A00016046600C30ED
:10479800A0606832FFF70AFE200070BD10B502481D
:1047A80000F0BDF810BDC046A502002010B50248B3
:1047B80000F0B6F810BDC046A502002010B50248AA
:1047C80000F0ADF810BDC046A602002010B50248A2
:1047D80000F0A6F810BDC046A602002013B50400DC
:1047E800FFF7ECFFA369002B02D0FFF7EFFF13BD23
:1047F800A364E3642365134B134A1B68A262019305
:10480800A34201D10123A361200000F01FF86060DA
:10481800200000F01BF8A060200000F017F800222C
:104828000421E0606068FFF777FF01220921A06892
:10483800FFF772FF02221221E068FFF76DFF0123E4
:10484800A361D2E7D056000869470008F8B5070009
:10485800FFF7A4FF1F4B1E68B369002B02D130007D
:10486800FFF7BCFF4836B4687368013B04D533686A
:10487800002B22D03668F6E70C22A55E002D1AD14F
:104888002000154B5830E360656600F047F8FFF7E5
:104898008DFF2000082229002560A560656025613C
:1048A8006561A5615C30FFF781FD6563A563A5645B
:1048B800E5642000F8BD6834D7E704213800FFF725
:1048C80057FF041E3060D5D1FFF770FF0C233B6003
:1048D800EFE7C046D05600080100FFFFF7B5040017
:1048E80006000027019148346368A5680093009B7F
:1048F800013B009304D52468002CF5D13800FEBD97
:10490800AB89012B08D90E22AB5E013304D02900F4
:104918003000019B984707436835E8E770477047C0
:104928007047000070B50E001D000E23C95E14000C
:1049380096B0002908DA0C22B35E00222A601B0612
:1049480011D48023DB000FE06A4600F079FD0028CF
:10495800F1DBF02301991B021940054BC9184B42A2
:1049680059412960EDE740230020236016B070BD4F
:1049780000E0FFFFF7B502268B8905000C003342E3
:1049880006D0230047332360236101236361F7BD09
:104998006A4601ABFFF7C6FF00990700280000F040
:1049A800A3F8002808D10C22A35E9A05EFD40322AD
:1049B80093431E43A681E4E70F4BAB628023A28991
:1049C80020601343A381009B20616361019B002B3E
:1049D8000DD028000E23E15E00F044FD002806D02B
:1049E8000322A38993431A0001231343A381A089B7
:1049F8000743A781CBE7C0466947000810B5034BBA
:104A08000100186800F070F810BDC0460C000020C6
:104A180070B50500002910D00C1F2368002B00DAA0
:104A2800E418280000F050FD1D4A1368002B05D13A
:104A380063601460280000F04FFD70BDA34208D9E0
:104A4800216860188342F3D118685B6841182160B7
:104A5800EEE71A005B68002B01D0A342F9D9116870
:104A68005018A0420BD120680918501811608342D1
:104A7800E0D118685B68411811605360DAE7A0421A
:104A880002D90C232B60D5E721686018834203D133
:104A980018685B684118216063605460CAE7C046C3
:104AA800A802002070B50F4E0D00316804000029DF
:104AB80002D100F073FB30602900200000F06EFB8B
:104AC800431C0AD00323C51C9D43A84207D0291ABA
:104AD800200000F063FB431C01D101256D42280032
:104AE80070BDC046AC020020F7B50322CB1C93432F
:104AF800083306001F000C2B32D20C27B94231D8DC
:104B0800300000F0E1FC324D2B681C00002C2ED147
:104B180039003000FFF7C6FF0400431C1ED12C6883
:104B28002500002D4AD123682900E318300001939D
:104B380000F034FB019B834243D123680337FF1AFB
:104B480003239F4308370C2F00D20C27390030006D
:104B5800FFF7A8FF431C34D02368DF19276013E050
:104B6800002BCBDA0C23002533602800FEBD226819
:104B7800D11B20D40B2917D9E2192760A34211D1E0
:104B88002A606368116053603000250000F0A4FCBF
:104B980007220B35231D9543EA1A9D42E5D05B1B7E
:104BA800A350E2E75A60ECE76268A34201D12A60A9
:104BB800EAE75A60E8E723006468A7E72C006D6815
:104BC800AFE70C233000336000F086FCCDE7C04629
:104BD800A8020020936810B5013B9360002B04DA0B
:104BE8009469A34207DB0A2905D01368581C106092
:104BF8001970080010BD00F02FFB0100F9E7F8B5A7
:104C080006000F001400D518AC4201D1002007E0BF
:104C180021783A003000FFF7DDFF0134431CF3D15F
:104C2800F8BD0000F0B5A1B006000C001F0003920B
:104C3800002804D08369002B01D1FFF7CFFD8E4BEC
:104C48009C421CD17468636EDB0705D4A3899B055D
:104C580002D4A06DFFF763FEA3891B0702D5236961
:104C6800002B1DD12100300000F060FB002817D078
:104C7800636EDB070DD50120404221B0F0BD7F4BAC
:104C88009C4201D1B468DEE77D4B9C42DBD1F468DD
:104C9800D9E7A3899B05EED4A06DFFF741FEEAE7AB
:104CA800002308AD6B6120336B761033AB76079722
:104CB800039F3B78002B01D0252B4ED1039BFB1A79
:104CC8000593039B9F420DD0059B21003000039A5A
:104CD800FFF795FF431C00D1B5E06A69059B944630
:104CE80063446B613B78002B00D1ACE001227B1C54
:104CF8000393002352426A6004A9543252182B606D
:104D0800EB60AB601370AB65039B052219785D48B7
:104D180000F0CEFB039B5F1C002820D12A68D30635
:104D280004D5532304A95B1820211970130704D54F
:104D3800532304A95B182B211970039B1B782A2B7A
:104D480016D00021EB68039F3A78781C303A8446E5
:104D5800092A4FD9002911D117E00137A9E7494B92
:104D68002A68C01A0123834013432B600397CBE7BB
:104D7800079B191D1B680791002B01DB0B9304E0AF
:104D88005B42EB60022313432B603B782E2B0AD146
:104D98007B782A2B37D1079B02371A1D1B6807928D
:104DA800002B2DDB099303223978374800F080FB6C
:104DB800002807D0344B2A68C01A40238340134385
:104DC80001372B6039787B1C0622304803932976FB
:104DD80000F06EFB002845D02D4B002B27D1072271
:104DE800079B07339343083307936B69049A9B180F
:104DF8006B615DE70A214B4367469B180939A3E7B6
:104E080001235B42CEE700231A0001376B60397833
:104E1800781C30398446092903D9002BC3D009925C
:104E2800C1E70A235A4367465218093BEFE707AB25
:104E38000093220029003000164B00E000BF0490C8
:104E4800049B0133D1D1636EDB0705D4A3899B058D
:104E580002D4A06DFFF764FDA3895B0600D50AE7BD
:104E68000D980AE707AB0093220029003000094B90
:104E780000F082F8E3E7C046F4560008145700082B
:104E8800D4560008345700083A5700083E5700081F
:104E980000000000074C0008F7B5150001938A6868
:104EA8000B690C000090934200DA130022002B607B
:104EB80043321278002A01D001332B6023689B0605
:104EC80002D52B6802332B602268062317001F4087
:104ED8001A4227D0230043331B785A1E9341226875
:104EE800920630D4220001990098089E4332B047B8
:104EF800431C25D0062320682A68E1680025034062
:104F0800042B03D18D1AEB43DB171D40A3682269DC
:104F1800934201DD9B1AED180027BD4220D10020E5
:104F280010E00137E3682A689B1ABB42D2DD2200F1
:104F3800012301990098089E1932B047431CF0D10B
:104F480001204042FEBD3020E118433108702100A5
:104F58005A1C45310978A218433202331170C1E74F
:104F68002200012301990098089E1A32B047431C79
:104F7800E6D00137D1E70000F0B58BB006920A0001
:104F880043320793059004920A7E0C00109B782AFE
:104F980007D8622A09D8002A00D1C1E0582A00D1CE
:104FA8008CE026004236327022E010006338152863
:104FB800F7D8FBF7A1F816001F00F6FFF6FFF6FF7B
:104FC800F6FF1F00F6FFF6FFF6FFF6FFA800360013
:104FD8009A00F6FFF6FFB900F6FF3600F6FFF6FF77
:104FE8009E0026001A684236111D19601368337036
:104FF8000123A7E0086819680A1D05060BD50D6886
:105008001A60002D03DA2D23049A6D421370614B48
:105018000A2703931BE00D681A604106F1D52DB2EB
:10502800EFE70D681968081D18602E0601D50D6890
:1050380003E06D06FBD50D68ADB2564B0827039308
:105048006F2A00D002372300002243331A706368A6
:10505800A360002B03DB0422216891432160002D0B
:1050680002D1049E002B0CD0049E28003900FBF7C7
:10507800D3F8039B013E5B5C33702B0005009F4215
:10508800F3D9082F09D12368DB0706D5636822699D
:10509800934202DC3023013E3370049B9B1B236147
:1050A800079B210000930598069B09AAFFF7F4FEC9
:1050B800431C4CD1012040420BB0F0BD45310A7071
:1050C800344A03921A68216820CA1A60080616D55D
:1050D800CB0702D52023194321601027002DB2D118
:1050E800202322689A432260ADE7202209680A43F8
:1050F80022602200782145321170274AE1E74806EC
:10510800E6D5ADB2E4E71A680D68101D4969186064
:1051180013682E0601D5196002E06D06FBD51980CB
:105128000023049E2361BBE71A68111D19601668E5
:1051380000213000626800F0BBF9002801D0801B14
:105148006060636823610023049A1370A8E72369E9
:10515800320006990598079DA847431CAAD02368E2
:105168009B0715D4099BE0689842A5DA1800A3E7C5
:105178002200012306990598079E1932B047431C5F
:1051880098D00135E368099A9B1AAB42F0DCE9E74D
:105198000025F7E74557000856570008002370B563
:1051A800064D040008002B60FCF70CFA431C03D1E1
:1051B8002B68002B00D0236070BDC046B0020020D1
:1051C80070B50C000E25495F00F08EF9002803DB4E
:1051D800636D1B18636570BDA389024A1340A381E0
:1051E800F9E7C046FFEFFFFFF8B51F008B89050000
:1051F8000C001600DB0505D50E23C95E002202232C
:1052080000F042F9A389054A28001340A38132001F
:105218000E23E15E3B0000F075F8F8BDFFEFFFFFDD
:1052280070B50C000E25495F00F02EF9A389421CC9
:1052380003D1054A1340A38170BD80225201134354
:10524800A3816065F8E7C046FFEFFFFF10B50E23A6
:10525800C95E00F0E3F810BDF8B505000E001400B3
:10526800002804D08369002B01D1FFF7B7FA224B3D
:105278009C422ED16C68A369A360A3891B0732D511
:105288002369002B2FD023682269F7B2981A636923
:10529800F6B2834205DC21002800FFF7FDF900285B
:1052A80027D1A3680130013BA36023685A1C226000
:1052B8001F706369834204D0A389DB0707D50A2ED0
:1052C80005D121002800FFF7E7F9002811D13000A7
:1052D800F8BD0A4B9C4201D1AC68CCE7084B9C4214
:1052E800C9D1EC68C7E72100280000F01FF80028A2
:1052F800C9D001267642EAE7F45600081457000898
:10530800D456000870B50400080011001A000023E4
:10531800054D2B60FCF7FEF8431C03D12B68002BCE
:1053280000D0236070BDC046B0020020374B70B576
:105338001D6806000C00002D05D0AB69002B02D1BA
:105348002800FFF74BFA324B9C420FD16C680C23B4
:10535800E25E93B211072DD4D90611D40923012096
:10536800336037331343A381404270BD294B9C42BD
:1053780001D1AC68EBE7284B9C42E8D1EC68E6E742
:105388005B0713D5616B002908D023004433994289
:1053980002D03000FFF73CFB002363632422A3897B
:1053A8009343A38100236360236923600823A289B0
:1053B8001343A3812369002B0BD1A0218022A38949
:1053C800890092000B40934203D021003000FFF780
:1053D800D1FA0C22A35E01201A0099B202400342BE
:1053E8000FD00022A26062695242A26100202269A5
:1053F8008242BAD10A06B8D540221343A3810138A4
:10540800B3E7880700D46269A260EFE70C000020C8
:10541800F456000814570008D4560008002370B545
:10542800064D040008002B60FCF790F8431C03D1DC
:105438002B68002B00D0236070BDC046B00200204E
:10544800002370B5064D0400080011002B60FCF71E
:10545800ABF8431C03D12B68002B00D0236070BD30
:10546800B0020020002370B5064D040008002B6030
:10547800FCF744F8431C03D12B68002B00D02360B1
:1054880070BDC046B002002070B5040008001100CD
:105498001A000023054D2B60FCF764F8431C03D168
:1054A8002B68002B00D0236070BDC046B0020020DE
:1054B800C9B28218904201D10020704703788B420C
:1054C800FBD00130F6E7000010B50248FFF727FAD5
:1054D80010BDC046A402002010B50248FFF720FA0C
:1054E80010BDC046A402002070B5040008001100D9
:1054F8001A000023054D2B60FCF73CF8431C03D130
:105508002B68002B00D0236070BDC046B00200207D
:10551800F8B5C046F8BC08BC9E467047F8B5C0460A
:08552800F8BC08BC9E46704768
:105530000C060008DC050008DC050008DA05000898
:10554000E0050008E005000828070008DA05000863
:10555000E005000828070008E0050008DA05000853
:10556000D4060008D4060008D40600086407000822
:1055700053686F727420746F20564343000000001C
:105580004F70656E20436F6E6E656374696F6E0059
:1055900053686F727420746F20474E4400000000FF
:1055A0004E6F204572726F7200000000666973745E
:1055B0003A20253034782C207365636F6E643A206E
:1055C000253034780A00000053656E736F723A20FC
:1055D000256420432028696E7465726E3A20256424
:1055E0002043290A0000000053656E736F723A2051
:1055F00025732028696E7465726E3A2025642043F5
:10560000290A0000BE380008C4380008C438000861
:10561000C4380008CE380008C4380008C438000870
:10562000C4380008D6380008C4380008C438000858
:10563000C4380008DE380008C4380008C438000840
:10564000C4380008E6380008C4380008C438000828
:10565000C4380008EE38000801000200040006000B
:1056600008000A000C00100020004000800000012B
:10567000000000000000000000000000000000002A
:10568000000000000000000000000000000000001A
:105690000100000002000000030000000400000000
:1056A00006000000070000000800000009000000DC
:1056B00000000000000000000000000000000000EA
:1056C00001000000020000000300000004000000D0
:1056D000100000200000000000000000000000009A
:1056E00000000000000000000000000000000000BA
:1056F00000000000000000000000000000000000AA
:105700000000000000000000000000000000000099
:105710000000000000000000000000000000000089
:105720000000000000000000000000000000000079
:1057300000000000232D302B2000686C4C006566B3
:1057400067454647003031323334353637383941D2
:1057500042434445460030313233343536373839E8
:085760006162636465660000EC
:04576800E100000854
:04576C00B900000878
:1057700001000000040000000024F40010000020DC
:1057800000000000F456000814570008D456000822
:105790000000000000000000000000000000000009
:1057A00000000000000000000000000000000000F9
:1057B00000000000000000000000000000000000E9
:1057C00000000000000000000000000000000000D9
:1057D00000000000000000000000000000000000C9
:040000050800430D9F
:00000001FF
